{
  "_format": "hh-sol-artifact-1",
  "contractName": "LMS_Elemes",
  "sourceName": "contracts/LMS_Elemes.sol",
  "abi": [
    {
      "inputs": [
        {
          "internalType": "address",
          "name": "_oracle",
          "type": "address"
        }
      ],
      "stateMutability": "nonpayable",
      "type": "constructor"
    },
    {
      "anonymous": false,
      "inputs": [
        {
          "indexed": false,
          "internalType": "address",
          "name": "user",
          "type": "address"
        },
        {
          "indexed": true,
          "internalType": "bytes32",
          "name": "lmsid",
          "type": "bytes32"
        }
      ],
      "name": "RegistrationRequested",
      "type": "event"
    },
    {
      "anonymous": false,
      "inputs": [
        {
          "indexed": true,
          "internalType": "address",
          "name": "user",
          "type": "address"
        },
        {
          "indexed": true,
          "internalType": "bytes32",
          "name": "lmsid",
          "type": "bytes32"
        }
      ],
      "name": "UserRegistered",
      "type": "event"
    },
    {
      "inputs": [
        {
          "internalType": "address",
          "name": "_user",
          "type": "address"
        }
      ],
      "name": "IsRegistered",
      "outputs": [
        {
          "internalType": "bool",
          "name": "",
          "type": "bool"
        }
      ],
      "stateMutability": "view",
      "type": "function"
    },
    {
      "inputs": [
        {
          "internalType": "address",
          "name": "_user",
          "type": "address"
        },
        {
          "internalType": "bytes32",
          "name": "_lmsid",
          "type": "bytes32"
        }
      ],
      "name": "assignLMSid",
      "outputs": [],
      "stateMutability": "nonpayable",
      "type": "function"
    },
    {
      "inputs": [
        {
          "internalType": "address",
          "name": "_user",
          "type": "address"
        }
      ],
      "name": "getLMSid",
      "outputs": [
        {
          "internalType": "bytes32",
          "name": "",
          "type": "bytes32"
        }
      ],
      "stateMutability": "view",
      "type": "function"
    },
    {
      "inputs": [],
      "name": "oracle",
      "outputs": [
        {
          "internalType": "address",
          "name": "",
          "type": "address"
        }
      ],
      "stateMutability": "view",
      "type": "function"
    },
    {
      "inputs": [
        {
          "internalType": "bytes32",
          "name": "_lmsid",
          "type": "bytes32"
        }
      ],
      "name": "register",
      "outputs": [],
      "stateMutability": "nonpayable",
      "type": "function"
    }
  ],
  "bytecode": "0x608060405234801561001057600080fd5b50604051610b8d380380610b8d833981810160405281019061003291906100dc565b80600360006101000a81548173ffffffffffffffffffffffffffffffffffffffff021916908373ffffffffffffffffffffffffffffffffffffffff16021790555050610109565b600080fd5b600073ffffffffffffffffffffffffffffffffffffffff82169050919050565b60006100a98261007e565b9050919050565b6100b98161009e565b81146100c457600080fd5b50565b6000815190506100d6816100b0565b92915050565b6000602082840312156100f2576100f1610079565b5b6000610100848285016100c7565b91505092915050565b610a75806101186000396000f3fe608060405234801561001057600080fd5b50600436106100575760003560e01c80636a8b777a1461005c5780637dc0d1d0146100785780639224240814610096578063c224122d146100c6578063e1fa8e84146100f6575b600080fd5b610076600480360381019061007191906106c8565b610112565b005b6100806103a7565b60405161008d9190610717565b60405180910390f35b6100b060048036038101906100ab9190610732565b6103cd565b6040516100bd919061076e565b60405180910390f35b6100e060048036038101906100db9190610732565b6104aa565b6040516100ed91906107a4565b60405180910390f35b610110600480360381019061010b91906107bf565b610508565b005b600360009054906101000a900473ffffffffffffffffffffffffffffffffffffffff1673ffffffffffffffffffffffffffffffffffffffff163373ffffffffffffffffffffffffffffffffffffffff16146101a2576040517f08c379a000000000000000000000000000000000000000000000000000000000815260040161019990610849565b60405180910390fd5b600160ff166000808473ffffffffffffffffffffffffffffffffffffffff1673ffffffffffffffffffffffffffffffffffffffff16815260200190815260200160002060009054906101000a900460ff1660ff1614610236576040517f08c379a000000000000000000000000000000000000000000000000000000000815260040161022d906108db565b60405180910390fd5b6002600082815260200190815260200160002060009054906101000a900460ff1615610297576040517f08c379a000000000000000000000000000000000000000000000000000000000815260040161028e90610947565b60405180910390fd5b80600160008473ffffffffffffffffffffffffffffffffffffffff1673ffffffffffffffffffffffffffffffffffffffff1681526020019081526020016000208190555060016002600083815260200190815260200160002060006101000a81548160ff02191690831515021790555060026000808473ffffffffffffffffffffffffffffffffffffffff1673ffffffffffffffffffffffffffffffffffffffff16815260200190815260200160002060006101000a81548160ff021916908360ff160217905550808273ffffffffffffffffffffffffffffffffffffffff167f4c5d15f5779ae1ecd7d55bd3283d898e29c35743d172bd7b83a16e17bc0afe2a60405160405180910390a35050565b600360009054906101000a900473ffffffffffffffffffffffffffffffffffffffff1681565b6000600260ff166000808473ffffffffffffffffffffffffffffffffffffffff1673ffffffffffffffffffffffffffffffffffffffff16815260200190815260200160002060009054906101000a900460ff1660ff1614610463576040517f08c379a000000000000000000000000000000000000000000000000000000000815260040161045a906109b3565b60405180910390fd5b600160008373ffffffffffffffffffffffffffffffffffffffff1673ffffffffffffffffffffffffffffffffffffffff168152602001908152602001600020549050919050565b6000600260ff166000808473ffffffffffffffffffffffffffffffffffffffff1673ffffffffffffffffffffffffffffffffffffffff16815260200190815260200160002060009054906101000a900460ff1660ff16149050919050565b600060ff166000803373ffffffffffffffffffffffffffffffffffffffff1673ffffffffffffffffffffffffffffffffffffffff16815260200190815260200160002060009054906101000a900460ff1660ff161461059c576040517f08c379a000000000000000000000000000000000000000000000000000000000815260040161059390610a1f565b60405180910390fd5b60016000803373ffffffffffffffffffffffffffffffffffffffff1673ffffffffffffffffffffffffffffffffffffffff16815260200190815260200160002060006101000a81548160ff021916908360ff160217905550807f17817e9b0939dadb898c754d278f980d8755d7b061da93a584af0c310d965b26336040516106249190610717565b60405180910390a250565b600080fd5b600073ffffffffffffffffffffffffffffffffffffffff82169050919050565b600061065f82610634565b9050919050565b61066f81610654565b811461067a57600080fd5b50565b60008135905061068c81610666565b92915050565b6000819050919050565b6106a581610692565b81146106b057600080fd5b50565b6000813590506106c28161069c565b92915050565b600080604083850312156106df576106de61062f565b5b60006106ed8582860161067d565b92505060206106fe858286016106b3565b9150509250929050565b61071181610654565b82525050565b600060208201905061072c6000830184610708565b92915050565b6000602082840312156107485761074761062f565b5b60006107568482850161067d565b91505092915050565b61076881610692565b82525050565b6000602082019050610783600083018461075f565b92915050565b60008115159050919050565b61079e81610789565b82525050565b60006020820190506107b96000830184610795565b92915050565b6000602082840312156107d5576107d461062f565b5b60006107e3848285016106b3565b91505092915050565b600082825260208201905092915050565b7f4e6f7420617574686f72697a6564000000000000000000000000000000000000600082015250565b6000610833600e836107ec565b915061083e826107fd565b602082019050919050565b6000602082019050818103600083015261086281610826565b9050919050565b7f5573657220686173206e6f74207265717565737465642072656769737472617460008201527f696f6e206f7220697320616c7265616479207265676973746572656400000000602082015250565b60006108c5603c836107ec565b91506108d082610869565b604082019050919050565b600060208201905081810360008301526108f4816108b8565b9050919050565b7f6c6d73696420616c72656164792061737369676e656400000000000000000000600082015250565b60006109316016836107ec565b915061093c826108fb565b602082019050919050565b6000602082019050818103600083015261096081610924565b9050919050565b7f55736572206e6f74207265676973746572656400000000000000000000000000600082015250565b600061099d6013836107ec565b91506109a882610967565b602082019050919050565b600060208201905081810360008301526109cc81610990565b9050919050565b7f416c726561647920726571756573746564206f72207265676973746572656400600082015250565b6000610a09601f836107ec565b9150610a14826109d3565b602082019050919050565b60006020820190508181036000830152610a38816109fc565b905091905056fea26469706673582212209d4205705cbb0e64523f7f6335a75fb0f0a525f0054ef3d77eab35e026e7ce1964736f6c63430008160033",
  "linkReferences": {},
  "deployedLinkReferences": {}
}