{
  "_format": "hh-sol-artifact-1",
  "contractName": "DelokCertificate",
  "sourceName": "contracts/Certificate.sol",
  "abi": [
    {
      "inputs": [],
      "stateMutability": "nonpayable",
      "type": "constructor"
    },
    {
      "inputs": [
        {
          "internalType": "address",
          "name": "target",
          "type": "address"
        }
      ],
      "name": "AddressEmptyCode",
      "type": "error"
    },
    {
      "inputs": [
        {
          "internalType": "address",
          "name": "implementation",
          "type": "address"
        }
      ],
      "name": "ERC1967InvalidImplementation",
      "type": "error"
    },
    {
      "inputs": [],
      "name": "ERC1967NonPayable",
      "type": "error"
    },
    {
      "inputs": [
        {
          "internalType": "address",
          "name": "sender",
          "type": "address"
        },
        {
          "internalType": "uint256",
          "name": "tokenId",
          "type": "uint256"
        },
        {
          "internalType": "address",
          "name": "owner",
          "type": "address"
        }
      ],
      "name": "ERC721IncorrectOwner",
      "type": "error"
    },
    {
      "inputs": [
        {
          "internalType": "address",
          "name": "operator",
          "type": "address"
        },
        {
          "internalType": "uint256",
          "name": "tokenId",
          "type": "uint256"
        }
      ],
      "name": "ERC721InsufficientApproval",
      "type": "error"
    },
    {
      "inputs": [
        {
          "internalType": "address",
          "name": "approver",
          "type": "address"
        }
      ],
      "name": "ERC721InvalidApprover",
      "type": "error"
    },
    {
      "inputs": [
        {
          "internalType": "address",
          "name": "operator",
          "type": "address"
        }
      ],
      "name": "ERC721InvalidOperator",
      "type": "error"
    },
    {
      "inputs": [
        {
          "internalType": "address",
          "name": "owner",
          "type": "address"
        }
      ],
      "name": "ERC721InvalidOwner",
      "type": "error"
    },
    {
      "inputs": [
        {
          "internalType": "address",
          "name": "receiver",
          "type": "address"
        }
      ],
      "name": "ERC721InvalidReceiver",
      "type": "error"
    },
    {
      "inputs": [
        {
          "internalType": "address",
          "name": "sender",
          "type": "address"
        }
      ],
      "name": "ERC721InvalidSender",
      "type": "error"
    },
    {
      "inputs": [
        {
          "internalType": "uint256",
          "name": "tokenId",
          "type": "uint256"
        }
      ],
      "name": "ERC721NonexistentToken",
      "type": "error"
    },
    {
      "inputs": [],
      "name": "FailedCall",
      "type": "error"
    },
    {
      "inputs": [],
      "name": "InvalidInitialization",
      "type": "error"
    },
    {
      "inputs": [],
      "name": "NotInitializing",
      "type": "error"
    },
    {
      "inputs": [
        {
          "internalType": "address",
          "name": "owner",
          "type": "address"
        }
      ],
      "name": "OwnableInvalidOwner",
      "type": "error"
    },
    {
      "inputs": [
        {
          "internalType": "address",
          "name": "account",
          "type": "address"
        }
      ],
      "name": "OwnableUnauthorizedAccount",
      "type": "error"
    },
    {
      "inputs": [],
      "name": "UUPSUnauthorizedCallContext",
      "type": "error"
    },
    {
      "inputs": [
        {
          "internalType": "bytes32",
          "name": "slot",
          "type": "bytes32"
        }
      ],
      "name": "UUPSUnsupportedProxiableUUID",
      "type": "error"
    },
    {
      "anonymous": false,
      "inputs": [
        {
          "indexed": true,
          "internalType": "address",
          "name": "owner",
          "type": "address"
        },
        {
          "indexed": true,
          "internalType": "address",
          "name": "approved",
          "type": "address"
        },
        {
          "indexed": true,
          "internalType": "uint256",
          "name": "tokenId",
          "type": "uint256"
        }
      ],
      "name": "Approval",
      "type": "event"
    },
    {
      "anonymous": false,
      "inputs": [
        {
          "indexed": true,
          "internalType": "address",
          "name": "owner",
          "type": "address"
        },
        {
          "indexed": true,
          "internalType": "address",
          "name": "operator",
          "type": "address"
        },
        {
          "indexed": false,
          "internalType": "bool",
          "name": "approved",
          "type": "bool"
        }
      ],
      "name": "ApprovalForAll",
      "type": "event"
    },
    {
      "anonymous": false,
      "inputs": [
        {
          "indexed": false,
          "internalType": "uint256",
          "name": "_fromTokenId",
          "type": "uint256"
        },
        {
          "indexed": false,
          "internalType": "uint256",
          "name": "_toTokenId",
          "type": "uint256"
        }
      ],
      "name": "BatchMetadataUpdate",
      "type": "event"
    },
    {
      "anonymous": false,
      "inputs": [
        {
          "indexed": false,
          "internalType": "uint64",
          "name": "version",
          "type": "uint64"
        }
      ],
      "name": "Initialized",
      "type": "event"
    },
    {
      "anonymous": false,
      "inputs": [
        {
          "indexed": false,
          "internalType": "uint256",
          "name": "_tokenId",
          "type": "uint256"
        }
      ],
      "name": "MetadataUpdate",
      "type": "event"
    },
    {
      "anonymous": false,
      "inputs": [
        {
          "indexed": true,
          "internalType": "address",
          "name": "user",
          "type": "address"
        },
        {
          "indexed": true,
          "internalType": "uint256",
          "name": "courseId",
          "type": "uint256"
        }
      ],
      "name": "MintRequested_Elemes",
      "type": "event"
    },
    {
      "anonymous": false,
      "inputs": [
        {
          "indexed": true,
          "internalType": "address",
          "name": "previousOwner",
          "type": "address"
        },
        {
          "indexed": true,
          "internalType": "address",
          "name": "newOwner",
          "type": "address"
        }
      ],
      "name": "OwnershipTransferred",
      "type": "event"
    },
    {
      "anonymous": false,
      "inputs": [
        {
          "indexed": true,
          "internalType": "uint256",
          "name": "tokenId",
          "type": "uint256"
        },
        {
          "indexed": true,
          "internalType": "address",
          "name": "user",
          "type": "address"
        },
        {
          "indexed": true,
          "internalType": "uint256",
          "name": "courseId",
          "type": "uint256"
        }
      ],
      "name": "TokenMinted_Elemes",
      "type": "event"
    },
    {
      "anonymous": false,
      "inputs": [
        {
          "indexed": true,
          "internalType": "address",
          "name": "from",
          "type": "address"
        },
        {
          "indexed": true,
          "internalType": "address",
          "name": "to",
          "type": "address"
        },
        {
          "indexed": true,
          "internalType": "uint256",
          "name": "tokenId",
          "type": "uint256"
        }
      ],
      "name": "Transfer",
      "type": "event"
    },
    {
      "anonymous": false,
      "inputs": [
        {
          "indexed": true,
          "internalType": "address",
          "name": "implementation",
          "type": "address"
        }
      ],
      "name": "Upgraded",
      "type": "event"
    },
    {
      "inputs": [],
      "name": "AddressLMSElemes",
      "outputs": [
        {
          "internalType": "address",
          "name": "",
          "type": "address"
        }
      ],
      "stateMutability": "view",
      "type": "function"
    },
    {
      "inputs": [],
      "name": "UPGRADE_INTERFACE_VERSION",
      "outputs": [
        {
          "internalType": "string",
          "name": "",
          "type": "string"
        }
      ],
      "stateMutability": "view",
      "type": "function"
    },
    {
      "inputs": [
        {
          "internalType": "address",
          "name": "to",
          "type": "address"
        },
        {
          "internalType": "uint256",
          "name": "tokenId",
          "type": "uint256"
        }
      ],
      "name": "approve",
      "outputs": [],
      "stateMutability": "nonpayable",
      "type": "function"
    },
    {
      "inputs": [
        {
          "internalType": "address",
          "name": "owner",
          "type": "address"
        }
      ],
      "name": "balanceOf",
      "outputs": [
        {
          "internalType": "uint256",
          "name": "",
          "type": "uint256"
        }
      ],
      "stateMutability": "view",
      "type": "function"
    },
    {
      "inputs": [
        {
          "internalType": "uint256",
          "name": "tokenId",
          "type": "uint256"
        }
      ],
      "name": "getApproved",
      "outputs": [
        {
          "internalType": "address",
          "name": "",
          "type": "address"
        }
      ],
      "stateMutability": "view",
      "type": "function"
    },
    {
      "inputs": [
        {
          "internalType": "address",
          "name": "initialOwner",
          "type": "address"
        },
        {
          "internalType": "address",
          "name": "_oracle",
          "type": "address"
        }
      ],
      "name": "initialize",
      "outputs": [],
      "stateMutability": "nonpayable",
      "type": "function"
    },
    {
      "inputs": [
        {
          "internalType": "address",
          "name": "owner",
          "type": "address"
        },
        {
          "internalType": "address",
          "name": "operator",
          "type": "address"
        }
      ],
      "name": "isApprovedForAll",
      "outputs": [
        {
          "internalType": "bool",
          "name": "",
          "type": "bool"
        }
      ],
      "stateMutability": "view",
      "type": "function"
    },
    {
      "inputs": [],
      "name": "lmsElemes",
      "outputs": [
        {
          "internalType": "contract ILMS_Elemes",
          "name": "",
          "type": "address"
        }
      ],
      "stateMutability": "view",
      "type": "function"
    },
    {
      "inputs": [
        {
          "internalType": "string",
          "name": "_tokenURI",
          "type": "string"
        },
        {
          "internalType": "address",
          "name": "_to",
          "type": "address"
        },
        {
          "internalType": "uint256",
          "name": "courseId",
          "type": "uint256"
        }
      ],
      "name": "mintCertificate_Elemes",
      "outputs": [
        {
          "internalType": "uint256",
          "name": "",
          "type": "uint256"
        }
      ],
      "stateMutability": "nonpayable",
      "type": "function"
    },
    {
      "inputs": [],
      "name": "name",
      "outputs": [
        {
          "internalType": "string",
          "name": "",
          "type": "string"
        }
      ],
      "stateMutability": "view",
      "type": "function"
    },
    {
      "inputs": [],
      "name": "oracle",
      "outputs": [
        {
          "internalType": "address",
          "name": "",
          "type": "address"
        }
      ],
      "stateMutability": "view",
      "type": "function"
    },
    {
      "inputs": [],
      "name": "owner",
      "outputs": [
        {
          "internalType": "address",
          "name": "",
          "type": "address"
        }
      ],
      "stateMutability": "view",
      "type": "function"
    },
    {
      "inputs": [
        {
          "internalType": "uint256",
          "name": "tokenId",
          "type": "uint256"
        }
      ],
      "name": "ownerOf",
      "outputs": [
        {
          "internalType": "address",
          "name": "",
          "type": "address"
        }
      ],
      "stateMutability": "view",
      "type": "function"
    },
    {
      "inputs": [],
      "name": "proxiableUUID",
      "outputs": [
        {
          "internalType": "bytes32",
          "name": "",
          "type": "bytes32"
        }
      ],
      "stateMutability": "view",
      "type": "function"
    },
    {
      "inputs": [],
      "name": "renounceOwnership",
      "outputs": [],
      "stateMutability": "nonpayable",
      "type": "function"
    },
    {
      "inputs": [
        {
          "internalType": "uint256",
          "name": "courseId",
          "type": "uint256"
        }
      ],
      "name": "requestMintCertificate_Elemes",
      "outputs": [],
      "stateMutability": "nonpayable",
      "type": "function"
    },
    {
      "inputs": [
        {
          "internalType": "address",
          "name": "from",
          "type": "address"
        },
        {
          "internalType": "address",
          "name": "to",
          "type": "address"
        },
        {
          "internalType": "uint256",
          "name": "tokenId",
          "type": "uint256"
        }
      ],
      "name": "safeTransferFrom",
      "outputs": [],
      "stateMutability": "nonpayable",
      "type": "function"
    },
    {
      "inputs": [
        {
          "internalType": "address",
          "name": "from",
          "type": "address"
        },
        {
          "internalType": "address",
          "name": "to",
          "type": "address"
        },
        {
          "internalType": "uint256",
          "name": "tokenId",
          "type": "uint256"
        },
        {
          "internalType": "bytes",
          "name": "data",
          "type": "bytes"
        }
      ],
      "name": "safeTransferFrom",
      "outputs": [],
      "stateMutability": "nonpayable",
      "type": "function"
    },
    {
      "inputs": [
        {
          "internalType": "address",
          "name": "operator",
          "type": "address"
        },
        {
          "internalType": "bool",
          "name": "approved",
          "type": "bool"
        }
      ],
      "name": "setApprovalForAll",
      "outputs": [],
      "stateMutability": "nonpayable",
      "type": "function"
    },
    {
      "inputs": [
        {
          "internalType": "address",
          "name": "_lmsElemesAddress",
          "type": "address"
        }
      ],
      "name": "setContractLMS_Elemes",
      "outputs": [],
      "stateMutability": "nonpayable",
      "type": "function"
    },
    {
      "inputs": [
        {
          "internalType": "bytes4",
          "name": "interfaceId",
          "type": "bytes4"
        }
      ],
      "name": "supportsInterface",
      "outputs": [
        {
          "internalType": "bool",
          "name": "",
          "type": "bool"
        }
      ],
      "stateMutability": "view",
      "type": "function"
    },
    {
      "inputs": [],
      "name": "symbol",
      "outputs": [
        {
          "internalType": "string",
          "name": "",
          "type": "string"
        }
      ],
      "stateMutability": "view",
      "type": "function"
    },
    {
      "inputs": [
        {
          "internalType": "uint256",
          "name": "tokenId",
          "type": "uint256"
        }
      ],
      "name": "tokenURI",
      "outputs": [
        {
          "internalType": "string",
          "name": "",
          "type": "string"
        }
      ],
      "stateMutability": "view",
      "type": "function"
    },
    {
      "inputs": [
        {
          "internalType": "address",
          "name": "from",
          "type": "address"
        },
        {
          "internalType": "address",
          "name": "to",
          "type": "address"
        },
        {
          "internalType": "uint256",
          "name": "tokenId",
          "type": "uint256"
        }
      ],
      "name": "transferFrom",
      "outputs": [],
      "stateMutability": "nonpayable",
      "type": "function"
    },
    {
      "inputs": [
        {
          "internalType": "address",
          "name": "newOwner",
          "type": "address"
        }
      ],
      "name": "transferOwnership",
      "outputs": [],
      "stateMutability": "nonpayable",
      "type": "function"
    },
    {
      "inputs": [
        {
          "internalType": "address",
          "name": "_oracle",
          "type": "address"
        }
      ],
      "name": "updateOracle",
      "outputs": [],
      "stateMutability": "nonpayable",
      "type": "function"
    },
    {
      "inputs": [
        {
          "internalType": "address",
          "name": "newImplementation",
          "type": "address"
        },
        {
          "internalType": "bytes",
          "name": "data",
          "type": "bytes"
        }
      ],
      "name": "upgradeToAndCall",
      "outputs": [],
      "stateMutability": "payable",
      "type": "function"
    }
  ],
  "bytecode": "0x60a06040523073ffffffffffffffffffffffffffffffffffffffff1660809073ffffffffffffffffffffffffffffffffffffffff168152503480156200004457600080fd5b50620000556200005b60201b60201c565b620001ee565b60006200006d6200016560201b60201c565b90508060000160089054906101000a900460ff1615620000b9576040517ff92ee8a900000000000000000000000000000000000000000000000000000000815260040160405180910390fd5b67ffffffffffffffff80168160000160009054906101000a900467ffffffffffffffff1667ffffffffffffffff1614620001625767ffffffffffffffff8160000160006101000a81548167ffffffffffffffff021916908367ffffffffffffffff1602179055507fc7f505b2f371ae2175ee4913f4499e1f2633a7b5936321eed1cdaeb6115181d267ffffffffffffffff604051620001599190620001d1565b60405180910390a15b50565b600080620001786200018160201b60201c565b90508091505090565b60007ff0c57e16840df040f15088dc2f81fe391c3923bec73e23a9662efc9c229c6a0060001b905090565b600067ffffffffffffffff82169050919050565b620001cb81620001ac565b82525050565b6000602082019050620001e86000830184620001c0565b92915050565b6080516145b76200021860003960008181611d2601528181611d7b0152611f3601526145b76000f3fe60806040526004361061019c5760003560e01c806370a08231116100ec578063ad3cb1cc1161008a578063c87b56dd11610064578063c87b56dd146105a5578063e985e9c5146105e2578063eb5ebe561461061f578063f2fde38b146106485761019c565b8063ad3cb1cc14610528578063b88d4fde14610553578063c3dfb5e51461057c5761019c565b80638da5cb5b116100c65780638da5cb5b1461047e57806395d89b41146104a9578063a01bedc6146104d4578063a22cb465146104ff5761019c565b806370a08231146103ff578063715018a61461043c5780637dc0d1d0146104535761019c565b806323b872dd116101595780634f1ef286116101335780634f1ef2861461033e57806352d1902d1461035a5780635572240e146103855780636352211e146103c25761019c565b806323b872dd146102c357806342842e0e146102ec578063485cc955146103155761019c565b806301ffc9a7146101a157806306fdde03146101de578063081812fc14610209578063095ea7b3146102465780631b1ec7121461026f5780631cb44dfc1461029a575b600080fd5b3480156101ad57600080fd5b506101c860048036038101906101c3919061331a565b610671565b6040516101d59190613362565b60405180910390f35b3480156101ea57600080fd5b506101f3610683565b604051610200919061340d565b60405180910390f35b34801561021557600080fd5b50610230600480360381019061022b9190613465565b610724565b60405161023d91906134d3565b60405180910390f35b34801561025257600080fd5b5061026d6004803603810190610268919061351a565b610740565b005b34801561027b57600080fd5b50610284610756565b60405161029191906134d3565b60405180910390f35b3480156102a657600080fd5b506102c160048036038101906102bc919061355a565b610780565b005b3480156102cf57600080fd5b506102ea60048036038101906102e59190613587565b61083b565b005b3480156102f857600080fd5b50610313600480360381019061030e9190613587565b61093d565b005b34801561032157600080fd5b5061033c600480360381019061033791906135da565b61095d565b005b6103586004803603810190610353919061374f565b610bb2565b005b34801561036657600080fd5b5061036f610bd1565b60405161037c91906137c4565b60405180910390f35b34801561039157600080fd5b506103ac60048036038101906103a79190613880565b610c04565b6040516103b991906138fe565b60405180910390f35b3480156103ce57600080fd5b506103e960048036038101906103e49190613465565b611042565b6040516103f691906134d3565b60405180910390f35b34801561040b57600080fd5b506104266004803603810190610421919061355a565b611054565b60405161043391906138fe565b60405180910390f35b34801561044857600080fd5b5061045161111d565b005b34801561045f57600080fd5b50610468611131565b60405161047591906134d3565b60405180910390f35b34801561048a57600080fd5b50610493611157565b6040516104a091906134d3565b60405180910390f35b3480156104b557600080fd5b506104be61118f565b6040516104cb919061340d565b60405180910390f35b3480156104e057600080fd5b506104e9611230565b6040516104f69190613978565b60405180910390f35b34801561050b57600080fd5b50610526600480360381019061052191906139bf565b611256565b005b34801561053457600080fd5b5061053d61126c565b60405161054a919061340d565b60405180910390f35b34801561055f57600080fd5b5061057a600480360381019061057591906139ff565b6112a5565b005b34801561058857600080fd5b506105a3600480360381019061059e9190613465565b6112ca565b005b3480156105b157600080fd5b506105cc60048036038101906105c79190613465565b6116b3565b6040516105d9919061340d565b60405180910390f35b3480156105ee57600080fd5b50610609600480360381019061060491906135da565b6116c5565b6040516106169190613362565b60405180910390f35b34801561062b57600080fd5b506106466004803603810190610641919061355a565b611767565b005b34801561065457600080fd5b5061066f600480360381019061066a919061355a565b611822565b005b600061067c826118a8565b9050919050565b6060600061068f611909565b90508060000180546106a090613ab1565b80601f01602080910402602001604051908101604052809291908181526020018280546106cc90613ab1565b80156107195780601f106106ee57610100808354040283529160200191610719565b820191906000526020600020905b8154815290600101906020018083116106fc57829003601f168201915b505050505091505090565b600061072f82611931565b50610739826119b9565b9050919050565b610752828261074d611a04565b611a0c565b5050565b6000600460009054906101000a900473ffffffffffffffffffffffffffffffffffffffff16905090565b610788611a1e565b600073ffffffffffffffffffffffffffffffffffffffff168173ffffffffffffffffffffffffffffffffffffffff16036107f7576040517f08c379a00000000000000000000000000000000000000000000000000000000081526004016107ee90613b2e565b60405180910390fd5b80600360006101000a81548173ffffffffffffffffffffffffffffffffffffffff021916908373ffffffffffffffffffffffffffffffffffffffff16021790555050565b600073ffffffffffffffffffffffffffffffffffffffff168273ffffffffffffffffffffffffffffffffffffffff16036108ad5760006040517f64a0ae920000000000000000000000000000000000000000000000000000000081526004016108a491906134d3565b60405180910390fd5b60006108c183836108bc611a04565b611aa5565b90508373ffffffffffffffffffffffffffffffffffffffff168173ffffffffffffffffffffffffffffffffffffffff1614610937578382826040517f64283d7b00000000000000000000000000000000000000000000000000000000815260040161092e93929190613b4e565b60405180910390fd5b50505050565b610958838383604051806020016040528060008152506112a5565b505050565b6000610967611cd2565b905060008160000160089054906101000a900460ff1615905060008260000160009054906101000a900467ffffffffffffffff1690506000808267ffffffffffffffff161480156109b55750825b9050600060018367ffffffffffffffff161480156109ea575060003073ffffffffffffffffffffffffffffffffffffffff163b145b9050811580156109f8575080155b15610a2f576040517ff92ee8a900000000000000000000000000000000000000000000000000000000815260040160405180910390fd5b60018560000160006101000a81548167ffffffffffffffff021916908367ffffffffffffffff1602179055508315610a7f5760018560000160086101000a81548160ff0219169083151502179055505b610af36040518060400160405280600981526020017f44656c6f6b4365727400000000000000000000000000000000000000000000008152506040518060400160405280600381526020017f444c430000000000000000000000000000000000000000000000000000000000815250611ce6565b610afb611cfc565b610b0487611d06565b610b0c611d1a565b85600360006101000a81548173ffffffffffffffffffffffffffffffffffffffff021916908373ffffffffffffffffffffffffffffffffffffffff1602179055508315610ba95760008560000160086101000a81548160ff0219169083151502179055507fc7f505b2f371ae2175ee4913f4499e1f2633a7b5936321eed1cdaeb6115181d26001604051610ba09190613bd4565b60405180910390a15b50505050505050565b610bba611d24565b610bc382611e0a565b610bcd8282611e15565b5050565b6000610bdb611f34565b7f360894a13ba1a3210667c828492db98dca3e2076cc3735a920a3ca505d382bbc60001b905090565b6000600360009054906101000a900473ffffffffffffffffffffffffffffffffffffffff1673ffffffffffffffffffffffffffffffffffffffff163373ffffffffffffffffffffffffffffffffffffffff1614610c96576040517f08c379a0000000000000000000000000000000000000000000000000000000008152600401610c8d90613c3b565b60405180910390fd5b600073ffffffffffffffffffffffffffffffffffffffff16600360009054906101000a900473ffffffffffffffffffffffffffffffffffffffff1673ffffffffffffffffffffffffffffffffffffffff1603610d27576040517f08c379a0000000000000000000000000000000000000000000000000000000008152600401610d1e90613ca7565b60405180910390fd5b600073ffffffffffffffffffffffffffffffffffffffff16600460009054906101000a900473ffffffffffffffffffffffffffffffffffffffff1673ffffffffffffffffffffffffffffffffffffffff1603610db8576040517f08c379a0000000000000000000000000000000000000000000000000000000008152600401610daf90613d13565b60405180910390fd5b600260008473ffffffffffffffffffffffffffffffffffffffff1673ffffffffffffffffffffffffffffffffffffffff168152602001908152602001600020600083815260200190815260200160002060009054906101000a900460ff16610e55576040517f08c379a0000000000000000000000000000000000000000000000000000000008152600401610e4c90613da5565b60405180910390fd5b600160008473ffffffffffffffffffffffffffffffffffffffff1673ffffffffffffffffffffffffffffffffffffffff168152602001908152602001600020600083815260200190815260200160002060009054906101000a900460ff1615610ef3576040517f08c379a0000000000000000000000000000000000000000000000000000000008152600401610eea90613e37565b60405180910390fd5b6000806000815480929190610f0790613e86565b919050559050610f178482611fbb565b610f2181866120b4565b60018060008673ffffffffffffffffffffffffffffffffffffffff1673ffffffffffffffffffffffffffffffffffffffff168152602001908152602001600020600085815260200190815260200160002060006101000a81548160ff0219169083151502179055506000600260008673ffffffffffffffffffffffffffffffffffffffff1673ffffffffffffffffffffffffffffffffffffffff168152602001908152602001600020600085815260200190815260200160002060006101000a81548160ff021916908315150217905550828473ffffffffffffffffffffffffffffffffffffffff16827f9f99b4403e54c95efb81f3a26939083aa8aa23c7412a1bd3ab1e8b1486d99d3260405160405180910390a4809150509392505050565b600061104d82611931565b9050919050565b60008061105f611909565b9050600073ffffffffffffffffffffffffffffffffffffffff168373ffffffffffffffffffffffffffffffffffffffff16036110d35760006040517f89c62b640000000000000000000000000000000000000000000000000000000081526004016110ca91906134d3565b60405180910390fd5b8060030160008473ffffffffffffffffffffffffffffffffffffffff1673ffffffffffffffffffffffffffffffffffffffff16815260200190815260200160002054915050919050565b611125611a1e565b61112f600061211f565b565b600360009054906101000a900473ffffffffffffffffffffffffffffffffffffffff1681565b6000806111626121f6565b90508060000160009054906101000a900473ffffffffffffffffffffffffffffffffffffffff1691505090565b6060600061119b611909565b90508060010180546111ac90613ab1565b80601f01602080910402602001604051908101604052809291908181526020018280546111d890613ab1565b80156112255780601f106111fa57610100808354040283529160200191611225565b820191906000526020600020905b81548152906001019060200180831161120857829003601f168201915b505050505091505090565b600460009054906101000a900473ffffffffffffffffffffffffffffffffffffffff1681565b611268611261611a04565b838361221e565b5050565b6040518060400160405280600581526020017f352e302e3000000000000000000000000000000000000000000000000000000081525081565b6112b084848461083b565b6112c46112bb611a04565b8585858561239c565b50505050565b600073ffffffffffffffffffffffffffffffffffffffff16600360009054906101000a900473ffffffffffffffffffffffffffffffffffffffff1673ffffffffffffffffffffffffffffffffffffffff160361135b576040517f08c379a000000000000000000000000000000000000000000000000000000000815260040161135290613ca7565b60405180910390fd5b600073ffffffffffffffffffffffffffffffffffffffff16600460009054906101000a900473ffffffffffffffffffffffffffffffffffffffff1673ffffffffffffffffffffffffffffffffffffffff16036113ec576040517f08c379a00000000000000000000000000000000000000000000000000000000081526004016113e390613d13565b60405180910390fd5b600460009054906101000a900473ffffffffffffffffffffffffffffffffffffffff1673ffffffffffffffffffffffffffffffffffffffff1663c224122d336040518263ffffffff1660e01b815260040161144791906134d3565b602060405180830381865afa158015611464573d6000803e3d6000fd5b505050506040513d601f19601f820116820180604052508101906114889190613ee3565b6114c7576040517f08c379a00000000000000000000000000000000000000000000000000000000081526004016114be90613f82565b60405180910390fd5b600260003373ffffffffffffffffffffffffffffffffffffffff1673ffffffffffffffffffffffffffffffffffffffff168152602001908152602001600020600082815260200190815260200160002060009054906101000a900460ff1615611565576040517f08c379a000000000000000000000000000000000000000000000000000000000815260040161155c90614014565b60405180910390fd5b600160003373ffffffffffffffffffffffffffffffffffffffff1673ffffffffffffffffffffffffffffffffffffffff168152602001908152602001600020600082815260200190815260200160002060009054906101000a900460ff1615611603576040517f08c379a00000000000000000000000000000000000000000000000000000000081526004016115fa906140a6565b60405180910390fd5b6001600260003373ffffffffffffffffffffffffffffffffffffffff1673ffffffffffffffffffffffffffffffffffffffff168152602001908152602001600020600083815260200190815260200160002060006101000a81548160ff021916908315150217905550803373ffffffffffffffffffffffffffffffffffffffff167fe0484f23de65e179a2fa281aeee41bdca3def2c4cec24e7c777db17dd27ca47260405160405180910390a350565b60606116be8261254d565b9050919050565b6000806116d0611909565b90508060050160008573ffffffffffffffffffffffffffffffffffffffff1673ffffffffffffffffffffffffffffffffffffffff16815260200190815260200160002060008473ffffffffffffffffffffffffffffffffffffffff1673ffffffffffffffffffffffffffffffffffffffff16815260200190815260200160002060009054906101000a900460ff1691505092915050565b61176f611a1e565b600073ffffffffffffffffffffffffffffffffffffffff168173ffffffffffffffffffffffffffffffffffffffff16036117de576040517f08c379a00000000000000000000000000000000000000000000000000000000081526004016117d590613b2e565b60405180910390fd5b80600460006101000a81548173ffffffffffffffffffffffffffffffffffffffff021916908373ffffffffffffffffffffffffffffffffffffffff16021790555050565b61182a611a1e565b600073ffffffffffffffffffffffffffffffffffffffff168173ffffffffffffffffffffffffffffffffffffffff160361189c5760006040517f1e4fbdf700000000000000000000000000000000000000000000000000000000815260040161189391906134d3565b60405180910390fd5b6118a58161211f565b50565b6000634906490660e01b7bffffffffffffffffffffffffffffffffffffffffffffffffffffffff1916827bffffffffffffffffffffffffffffffffffffffffffffffffffffffff19161480611902575061190182612671565b5b9050919050565b60007f80bb2b638cc20bc4d0a60d66940f3ab4a00c1d7b313497ca82fb0b4ab0079300905090565b60008061193d83612753565b9050600073ffffffffffffffffffffffffffffffffffffffff168173ffffffffffffffffffffffffffffffffffffffff16036119b057826040517f7e2732890000000000000000000000000000000000000000000000000000000081526004016119a791906138fe565b60405180910390fd5b80915050919050565b6000806119c4611909565b905080600401600084815260200190815260200160002060009054906101000a900473ffffffffffffffffffffffffffffffffffffffff16915050919050565b600033905090565b611a19838383600161279e565b505050565b611a26611a04565b73ffffffffffffffffffffffffffffffffffffffff16611a44611157565b73ffffffffffffffffffffffffffffffffffffffff1614611aa357611a67611a04565b6040517f118cdaa7000000000000000000000000000000000000000000000000000000008152600401611a9a91906134d3565b60405180910390fd5b565b600080611ab0611909565b90506000611abd85612753565b9050600073ffffffffffffffffffffffffffffffffffffffff168473ffffffffffffffffffffffffffffffffffffffff1614611aff57611afe818587612972565b5b600073ffffffffffffffffffffffffffffffffffffffff168173ffffffffffffffffffffffffffffffffffffffff1614611b9257611b4160008660008061279e565b60018260030160008373ffffffffffffffffffffffffffffffffffffffff1673ffffffffffffffffffffffffffffffffffffffff168152602001908152602001600020600082825403925050819055505b600073ffffffffffffffffffffffffffffffffffffffff168673ffffffffffffffffffffffffffffffffffffffff1614611c175760018260030160008873ffffffffffffffffffffffffffffffffffffffff1673ffffffffffffffffffffffffffffffffffffffff168152602001908152602001600020600082825401925050819055505b8582600201600087815260200190815260200160002060006101000a81548173ffffffffffffffffffffffffffffffffffffffff021916908373ffffffffffffffffffffffffffffffffffffffff160217905550848673ffffffffffffffffffffffffffffffffffffffff168273ffffffffffffffffffffffffffffffffffffffff167fddf252ad1be2c89b69c2b068fc378daa952ba7f163c4a11628f55a4df523b3ef60405160405180910390a480925050509392505050565b600080611cdd612a36565b90508091505090565b611cee612a61565b611cf88282612aa1565b5050565b611d04612a61565b565b611d0e612a61565b611d1781612ade565b50565b611d22612a61565b565b7f000000000000000000000000000000000000000000000000000000000000000073ffffffffffffffffffffffffffffffffffffffff163073ffffffffffffffffffffffffffffffffffffffff161480611dd157507f000000000000000000000000000000000000000000000000000000000000000073ffffffffffffffffffffffffffffffffffffffff16611db8612b64565b73ffffffffffffffffffffffffffffffffffffffff1614155b15611e08576040517fe07c8dba00000000000000000000000000000000000000000000000000000000815260040160405180910390fd5b565b611e12611a1e565b50565b8173ffffffffffffffffffffffffffffffffffffffff166352d1902d6040518163ffffffff1660e01b8152600401602060405180830381865afa925050508015611e7d57506040513d601f19601f82011682018060405250810190611e7a91906140f2565b60015b611ebe57816040517f4c9c8ce3000000000000000000000000000000000000000000000000000000008152600401611eb591906134d3565b60405180910390fd5b7f360894a13ba1a3210667c828492db98dca3e2076cc3735a920a3ca505d382bbc60001b8114611f2557806040517faa1d49a4000000000000000000000000000000000000000000000000000000008152600401611f1c91906137c4565b60405180910390fd5b611f2f8383612bbb565b505050565b7f000000000000000000000000000000000000000000000000000000000000000073ffffffffffffffffffffffffffffffffffffffff163073ffffffffffffffffffffffffffffffffffffffff1614611fb9576040517fe07c8dba00000000000000000000000000000000000000000000000000000000815260040160405180910390fd5b565b600073ffffffffffffffffffffffffffffffffffffffff168273ffffffffffffffffffffffffffffffffffffffff160361202d5760006040517f64a0ae9200000000000000000000000000000000000000000000000000000000815260040161202491906134d3565b60405180910390fd5b600061203b83836000611aa5565b9050600073ffffffffffffffffffffffffffffffffffffffff168173ffffffffffffffffffffffffffffffffffffffff16146120af5760006040517f73c6ac6e0000000000000000000000000000000000000000000000000000000081526004016120a691906134d3565b60405180910390fd5b505050565b60006120be612c2e565b90508181600001600085815260200190815260200160002090816120e291906142c1565b507ff8e1a15aba9398e019f0b49df1a4fde98ee17ae345cb5f6b5e2c27f5033e8ce78360405161211291906138fe565b60405180910390a1505050565b60006121296121f6565b905060008160000160009054906101000a900473ffffffffffffffffffffffffffffffffffffffff169050828260000160006101000a81548173ffffffffffffffffffffffffffffffffffffffff021916908373ffffffffffffffffffffffffffffffffffffffff1602179055508273ffffffffffffffffffffffffffffffffffffffff168173ffffffffffffffffffffffffffffffffffffffff167f8be0079c531659141344cd1fd0a4f28419497f9722a3daafe3b4186f6b6457e060405160405180910390a3505050565b60007f9016d09d72d40fdae2fd8ceac6b6234c7706214fd39c1cd1e609a0528c199300905090565b6000612228611909565b9050600073ffffffffffffffffffffffffffffffffffffffff168373ffffffffffffffffffffffffffffffffffffffff160361229b57826040517f5b08ba1800000000000000000000000000000000000000000000000000000000815260040161229291906134d3565b60405180910390fd5b818160050160008673ffffffffffffffffffffffffffffffffffffffff1673ffffffffffffffffffffffffffffffffffffffff16815260200190815260200160002060008573ffffffffffffffffffffffffffffffffffffffff1673ffffffffffffffffffffffffffffffffffffffff16815260200190815260200160002060006101000a81548160ff0219169083151502179055508273ffffffffffffffffffffffffffffffffffffffff168473ffffffffffffffffffffffffffffffffffffffff167f17307eab39ab6107e8899845ad3d59bd9653f200f220920489ca2b5937696c318460405161238e9190613362565b60405180910390a350505050565b60008373ffffffffffffffffffffffffffffffffffffffff163b1115612546578273ffffffffffffffffffffffffffffffffffffffff1663150b7a02868685856040518563ffffffff1660e01b81526004016123fb94939291906143e8565b6020604051808303816000875af192505050801561243757506040513d601f19601f820116820180604052508101906124349190614449565b60015b6124bb573d8060008114612467576040519150601f19603f3d011682016040523d82523d6000602084013e61246c565b606091505b5060008151036124b357836040517f64a0ae920000000000000000000000000000000000000000000000000000000081526004016124aa91906134d3565b60405180910390fd5b805181602001fd5b63150b7a0260e01b7bffffffffffffffffffffffffffffffffffffffffffffffffffffffff1916817bffffffffffffffffffffffffffffffffffffffffffffffffffffffff19161461254457836040517f64a0ae9200000000000000000000000000000000000000000000000000000000815260040161253b91906134d3565b60405180910390fd5b505b5050505050565b60606000612559612c2e565b905061256483611931565b506000816000016000858152602001908152602001600020805461258790613ab1565b80601f01602080910402602001604051908101604052809291908181526020018280546125b390613ab1565b80156126005780601f106125d557610100808354040283529160200191612600565b820191906000526020600020905b8154815290600101906020018083116125e357829003601f168201915b505050505090506000612611612c56565b905060008151036126275781935050505061266c565b60008251111561265d5780826040516020016126449291906144b2565b604051602081830303815290604052935050505061266c565b61266685612c6d565b93505050505b919050565b60007f80ac58cd000000000000000000000000000000000000000000000000000000007bffffffffffffffffffffffffffffffffffffffffffffffffffffffff1916827bffffffffffffffffffffffffffffffffffffffffffffffffffffffff1916148061273c57507f5b5e139f000000000000000000000000000000000000000000000000000000007bffffffffffffffffffffffffffffffffffffffffffffffffffffffff1916827bffffffffffffffffffffffffffffffffffffffffffffffffffffffff1916145b8061274c575061274b82612cd6565b5b9050919050565b60008061275e611909565b905080600201600084815260200190815260200160002060009054906101000a900473ffffffffffffffffffffffffffffffffffffffff16915050919050565b60006127a8611909565b905081806127e35750600073ffffffffffffffffffffffffffffffffffffffff168373ffffffffffffffffffffffffffffffffffffffff1614155b156129175760006127f385611931565b9050600073ffffffffffffffffffffffffffffffffffffffff168473ffffffffffffffffffffffffffffffffffffffff161415801561285e57508373ffffffffffffffffffffffffffffffffffffffff168173ffffffffffffffffffffffffffffffffffffffff1614155b8015612871575061286f81856116c5565b155b156128b357836040517fa9fbf51f0000000000000000000000000000000000000000000000000000000081526004016128aa91906134d3565b60405180910390fd5b821561291557848673ffffffffffffffffffffffffffffffffffffffff168273ffffffffffffffffffffffffffffffffffffffff167f8c5be1e5ebec7d5bd14f71427d1e84f3dd0314c0f7b2291e5b200ac8c7c3b92560405160405180910390a45b505b8481600401600086815260200190815260200160002060006101000a81548173ffffffffffffffffffffffffffffffffffffffff021916908373ffffffffffffffffffffffffffffffffffffffff1602179055505050505050565b61297d838383612d40565b612a3157600073ffffffffffffffffffffffffffffffffffffffff168373ffffffffffffffffffffffffffffffffffffffff16036129f257806040517f7e2732890000000000000000000000000000000000000000000000000000000081526004016129e991906138fe565b60405180910390fd5b81816040517f177e802f000000000000000000000000000000000000000000000000000000008152600401612a289291906144d6565b60405180910390fd5b505050565b60007ff0c57e16840df040f15088dc2f81fe391c3923bec73e23a9662efc9c229c6a0060001b905090565b612a69612e01565b612a9f576040517fd7e6bcf800000000000000000000000000000000000000000000000000000000815260040160405180910390fd5b565b612aa9612a61565b6000612ab3611909565b905082816000019081612ac691906142c1565b5081816001019081612ad891906142c1565b50505050565b612ae6612a61565b600073ffffffffffffffffffffffffffffffffffffffff168173ffffffffffffffffffffffffffffffffffffffff1603612b585760006040517f1e4fbdf7000000000000000000000000000000000000000000000000000000008152600401612b4f91906134d3565b60405180910390fd5b612b618161211f565b50565b6000612b927f360894a13ba1a3210667c828492db98dca3e2076cc3735a920a3ca505d382bbc60001b612e21565b60000160009054906101000a900473ffffffffffffffffffffffffffffffffffffffff16905090565b612bc482612e2b565b8173ffffffffffffffffffffffffffffffffffffffff167fbc7cd75a20ee27fd9adebab32041f755214dbc6bffa90cc0225b39da2e5c2d3b60405160405180910390a2600081511115612c2157612c1b8282612ef8565b50612c2a565b612c29612f7c565b5b5050565b60007f0542a41881ee128a365a727b282c86fa859579490b9bb45aab8503648c8e7900905090565b606060405180602001604052806000815250905090565b6060612c7882611931565b506000612c83612c56565b90506000815111612ca35760405180602001604052806000815250612cce565b80612cad84612fb9565b604051602001612cbe9291906144b2565b6040516020818303038152906040525b915050919050565b60007f01ffc9a7000000000000000000000000000000000000000000000000000000007bffffffffffffffffffffffffffffffffffffffffffffffffffffffff1916827bffffffffffffffffffffffffffffffffffffffffffffffffffffffff1916149050919050565b60008073ffffffffffffffffffffffffffffffffffffffff168373ffffffffffffffffffffffffffffffffffffffff1614158015612df857508273ffffffffffffffffffffffffffffffffffffffff168473ffffffffffffffffffffffffffffffffffffffff161480612db95750612db884846116c5565b5b80612df757508273ffffffffffffffffffffffffffffffffffffffff16612ddf836119b9565b73ffffffffffffffffffffffffffffffffffffffff16145b5b90509392505050565b6000612e0b611cd2565b60000160089054906101000a900460ff16905090565b6000819050919050565b60008173ffffffffffffffffffffffffffffffffffffffff163b03612e8757806040517f4c9c8ce3000000000000000000000000000000000000000000000000000000008152600401612e7e91906134d3565b60405180910390fd5b80612eb47f360894a13ba1a3210667c828492db98dca3e2076cc3735a920a3ca505d382bbc60001b612e21565b60000160006101000a81548173ffffffffffffffffffffffffffffffffffffffff021916908373ffffffffffffffffffffffffffffffffffffffff16021790555050565b60606000808473ffffffffffffffffffffffffffffffffffffffff1684604051612f22919061453b565b600060405180830381855af49150503d8060008114612f5d576040519150601f19603f3d011682016040523d82523d6000602084013e612f62565b606091505b5091509150612f72858383613087565b9250505092915050565b6000341115612fb7576040517fb398979f00000000000000000000000000000000000000000000000000000000815260040160405180910390fd5b565b606060006001612fc884613116565b01905060008167ffffffffffffffff811115612fe757612fe6613624565b5b6040519080825280601f01601f1916602001820160405280156130195781602001600182028036833780820191505090505b509050600082602001820190505b60011561307c578080600190039150507f3031323334353637383961626364656600000000000000000000000000000000600a86061a8153600a85816130705761306f614552565b5b04945060008503613027575b819350505050919050565b60608261309c5761309782613269565b61310e565b600082511480156130c4575060008473ffffffffffffffffffffffffffffffffffffffff163b145b1561310657836040517f9996b3150000000000000000000000000000000000000000000000000000000081526004016130fd91906134d3565b60405180910390fd5b81905061310f565b5b9392505050565b600080600090507a184f03e93ff9f4daa797ed6e38ed64bf6a1f0100000000000000008310613174577a184f03e93ff9f4daa797ed6e38ed64bf6a1f010000000000000000838161316a57613169614552565b5b0492506040810190505b6d04ee2d6d415b85acef810000000083106131b1576d04ee2d6d415b85acef810000000083816131a7576131a6614552565b5b0492506020810190505b662386f26fc1000083106131e057662386f26fc1000083816131d6576131d5614552565b5b0492506010810190505b6305f5e1008310613209576305f5e10083816131ff576131fe614552565b5b0492506008810190505b612710831061322e57612710838161322457613223614552565b5b0492506004810190505b60648310613251576064838161324757613246614552565b5b0492506002810190505b600a8310613260576001810190505b80915050919050565b60008151111561327c5780518082602001fd5b6040517fd6bda27500000000000000000000000000000000000000000000000000000000815260040160405180910390fd5b6000604051905090565b600080fd5b600080fd5b60007fffffffff0000000000000000000000000000000000000000000000000000000082169050919050565b6132f7816132c2565b811461330257600080fd5b50565b600081359050613314816132ee565b92915050565b6000602082840312156133305761332f6132b8565b5b600061333e84828501613305565b91505092915050565b60008115159050919050565b61335c81613347565b82525050565b60006020820190506133776000830184613353565b92915050565b600081519050919050565b600082825260208201905092915050565b60005b838110156133b757808201518184015260208101905061339c565b60008484015250505050565b6000601f19601f8301169050919050565b60006133df8261337d565b6133e98185613388565b93506133f9818560208601613399565b613402816133c3565b840191505092915050565b6000602082019050818103600083015261342781846133d4565b905092915050565b6000819050919050565b6134428161342f565b811461344d57600080fd5b50565b60008135905061345f81613439565b92915050565b60006020828403121561347b5761347a6132b8565b5b600061348984828501613450565b91505092915050565b600073ffffffffffffffffffffffffffffffffffffffff82169050919050565b60006134bd82613492565b9050919050565b6134cd816134b2565b82525050565b60006020820190506134e860008301846134c4565b92915050565b6134f7816134b2565b811461350257600080fd5b50565b600081359050613514816134ee565b92915050565b60008060408385031215613531576135306132b8565b5b600061353f85828601613505565b925050602061355085828601613450565b9150509250929050565b6000602082840312156135705761356f6132b8565b5b600061357e84828501613505565b91505092915050565b6000806000606084860312156135a05761359f6132b8565b5b60006135ae86828701613505565b93505060206135bf86828701613505565b92505060406135d086828701613450565b9150509250925092565b600080604083850312156135f1576135f06132b8565b5b60006135ff85828601613505565b925050602061361085828601613505565b9150509250929050565b600080fd5b600080fd5b7f4e487b7100000000000000000000000000000000000000000000000000000000600052604160045260246000fd5b61365c826133c3565b810181811067ffffffffffffffff8211171561367b5761367a613624565b5b80604052505050565b600061368e6132ae565b905061369a8282613653565b919050565b600067ffffffffffffffff8211156136ba576136b9613624565b5b6136c3826133c3565b9050602081019050919050565b82818337600083830152505050565b60006136f26136ed8461369f565b613684565b90508281526020810184848401111561370e5761370d61361f565b5b6137198482856136d0565b509392505050565b600082601f8301126137365761373561361a565b5b81356137468482602086016136df565b91505092915050565b60008060408385031215613766576137656132b8565b5b600061377485828601613505565b925050602083013567ffffffffffffffff811115613795576137946132bd565b5b6137a185828601613721565b9150509250929050565b6000819050919050565b6137be816137ab565b82525050565b60006020820190506137d960008301846137b5565b92915050565b600067ffffffffffffffff8211156137fa576137f9613624565b5b613803826133c3565b9050602081019050919050565b600061382361381e846137df565b613684565b90508281526020810184848401111561383f5761383e61361f565b5b61384a8482856136d0565b509392505050565b600082601f8301126138675761386661361a565b5b8135613877848260208601613810565b91505092915050565b600080600060608486031215613899576138986132b8565b5b600084013567ffffffffffffffff8111156138b7576138b66132bd565b5b6138c386828701613852565b93505060206138d486828701613505565b92505060406138e586828701613450565b9150509250925092565b6138f88161342f565b82525050565b600060208201905061391360008301846138ef565b92915050565b6000819050919050565b600061393e61393961393484613492565b613919565b613492565b9050919050565b600061395082613923565b9050919050565b600061396282613945565b9050919050565b61397281613957565b82525050565b600060208201905061398d6000830184613969565b92915050565b61399c81613347565b81146139a757600080fd5b50565b6000813590506139b981613993565b92915050565b600080604083850312156139d6576139d56132b8565b5b60006139e485828601613505565b92505060206139f5858286016139aa565b9150509250929050565b60008060008060808587031215613a1957613a186132b8565b5b6000613a2787828801613505565b9450506020613a3887828801613505565b9350506040613a4987828801613450565b925050606085013567ffffffffffffffff811115613a6a57613a696132bd565b5b613a7687828801613721565b91505092959194509250565b7f4e487b7100000000000000000000000000000000000000000000000000000000600052602260045260246000fd5b60006002820490506001821680613ac957607f821691505b602082108103613adc57613adb613a82565b5b50919050565b7f5a65726f20616464726573730000000000000000000000000000000000000000600082015250565b6000613b18600c83613388565b9150613b2382613ae2565b602082019050919050565b60006020820190508181036000830152613b4781613b0b565b9050919050565b6000606082019050613b6360008301866134c4565b613b7060208301856138ef565b613b7d60408301846134c4565b949350505050565b6000819050919050565b600067ffffffffffffffff82169050919050565b6000613bbe613bb9613bb484613b85565b613919565b613b8f565b9050919050565b613bce81613ba3565b82525050565b6000602082019050613be96000830184613bc5565b92915050565b7f4e6f7420617574686f72697a6564000000000000000000000000000000000000600082015250565b6000613c25600e83613388565b9150613c3082613bef565b602082019050919050565b60006020820190508181036000830152613c5481613c18565b9050919050565b7f4f7261636c6520756e646566696e656400000000000000000000000000000000600082015250565b6000613c91601083613388565b9150613c9c82613c5b565b602082019050919050565b60006020820190508181036000830152613cc081613c84565b9050919050565b7f6c6d73456c656d657320756e646566696e656400000000000000000000000000600082015250565b6000613cfd601383613388565b9150613d0882613cc7565b602082019050919050565b60006020820190508181036000830152613d2c81613cf0565b9050919050565b7f5573657220686173206e6f74207265717565737465642061206365727469666960008201527f6361746520666f72207468697320636f75727365000000000000000000000000602082015250565b6000613d8f603483613388565b9150613d9a82613d33565b604082019050919050565b60006020820190508181036000830152613dbe81613d82565b9050919050565b7f557365722068617320616c7265616479206d696e74656420612063657274696660008201527f696361746520666f72207468697320636f757273650000000000000000000000602082015250565b6000613e21603583613388565b9150613e2c82613dc5565b604082019050919050565b60006020820190508181036000830152613e5081613e14565b9050919050565b7f4e487b7100000000000000000000000000000000000000000000000000000000600052601160045260246000fd5b6000613e918261342f565b91507fffffffffffffffffffffffffffffffffffffffffffffffffffffffffffffffff8203613ec357613ec2613e57565b5b600182019050919050565b600081519050613edd81613993565b92915050565b600060208284031215613ef957613ef86132b8565b5b6000613f0784828501613ece565b91505092915050565b7f596f75206d757374206265207265676973746572656420746f2072657175657360008201527f7420612063657274696669636174650000000000000000000000000000000000602082015250565b6000613f6c602f83613388565b9150613f7782613f10565b604082019050919050565b60006020820190508181036000830152613f9b81613f5f565b9050919050565b7f596f75206861766520616c72656164792072657175657374656420746869732060008201527f636f757273650000000000000000000000000000000000000000000000000000602082015250565b6000613ffe602683613388565b915061400982613fa2565b604082019050919050565b6000602082019050818103600083015261402d81613ff1565b9050919050565b7f596f75206861766520616c7265616479206d696e74656420612063657274696660008201527f696361746520666f72207468697320636f757273650000000000000000000000602082015250565b6000614090603583613388565b915061409b82614034565b604082019050919050565b600060208201905081810360008301526140bf81614083565b9050919050565b6140cf816137ab565b81146140da57600080fd5b50565b6000815190506140ec816140c6565b92915050565b600060208284031215614108576141076132b8565b5b6000614116848285016140dd565b91505092915050565b60008190508160005260206000209050919050565b60006020601f8301049050919050565b600082821b905092915050565b6000600883026141817fffffffffffffffffffffffffffffffffffffffffffffffffffffffffffffffff82614144565b61418b8683614144565b95508019841693508086168417925050509392505050565b60006141be6141b96141b48461342f565b613919565b61342f565b9050919050565b6000819050919050565b6141d8836141a3565b6141ec6141e4826141c5565b848454614151565b825550505050565b600090565b6142016141f4565b61420c8184846141cf565b505050565b5b81811015614230576142256000826141f9565b600181019050614212565b5050565b601f821115614275576142468161411f565b61424f84614134565b8101602085101561425e578190505b61427261426a85614134565b830182614211565b50505b505050565b600082821c905092915050565b60006142986000198460080261427a565b1980831691505092915050565b60006142b18383614287565b9150826002028217905092915050565b6142ca8261337d565b67ffffffffffffffff8111156142e3576142e2613624565b5b6142ed8254613ab1565b6142f8828285614234565b600060209050601f83116001811461432b5760008415614319578287015190505b61432385826142a5565b86555061438b565b601f1984166143398661411f565b60005b828110156143615784890151825560018201915060208501945060208101905061433c565b8683101561437e578489015161437a601f891682614287565b8355505b6001600288020188555050505b505050505050565b600081519050919050565b600082825260208201905092915050565b60006143ba82614393565b6143c4818561439e565b93506143d4818560208601613399565b6143dd816133c3565b840191505092915050565b60006080820190506143fd60008301876134c4565b61440a60208301866134c4565b61441760408301856138ef565b818103606083015261442981846143af565b905095945050505050565b600081519050614443816132ee565b92915050565b60006020828403121561445f5761445e6132b8565b5b600061446d84828501614434565b91505092915050565b600081905092915050565b600061448c8261337d565b6144968185614476565b93506144a6818560208601613399565b80840191505092915050565b60006144be8285614481565b91506144ca8284614481565b91508190509392505050565b60006040820190506144eb60008301856134c4565b6144f860208301846138ef565b9392505050565b600081905092915050565b600061451582614393565b61451f81856144ff565b935061452f818560208601613399565b80840191505092915050565b6000614547828461450a565b915081905092915050565b7f4e487b7100000000000000000000000000000000000000000000000000000000600052601260045260246000fdfea2646970667358221220c34fbe122ae41bdfe83e671d25d61c3611836007c40526f26b3d176cbb0ea56f64736f6c63430008160033",
  "linkReferences": {},
  "deployedLinkReferences": {}
}